S0120000566F6C746D65747465722E73726563DC
S11300000C942A000C943F000C943F000C943F0085
S11300100C943F000C943F000C943F000C943F0060
S11300200C943F000C943F000C943F000C943F0050
S11300300C943F000C943F000C943F000C943F0040
S11300400C943F000C943F000C943F000C943F0030
S11300500C943F0011241FBECFE5D4E0DEBFCDBF1A
S113006010E0A0E6B0E0EEE1F9E002C005900D92E8
S1130070A83FB107D9F70E9461020C948D040C9437
S1130080000098B39F7B98BB98B39F7D98BB82BBBD
S113009088B3806888BB8FEC97E00197F1F700C0C4
S11300A0000088B38F7788BB8FE097E20197F1F760
S11300B000C00000089598B39F7B98BB98B39062EA
S11300C098BB82BB88B3806888BB8FEC97E00197AC
S11300D0F1F700C0000088B38F7788BB8FE097E208
S11300E00197F1F700C0000008950F931F93CF9379
S11300F0DF938C01C0E0D0E003C00E945B00219636
S1130100F801EC0FFD1F80818111F7CFDF91CF91B2
S11301101F910F91089581E00E94410080E690E0D4
S11301200E94750087B1826487B986B1876E86B9EB
S113013080B780BF349BFECF86B1806186B964B13D
S113014075B180E090E00E94050326EE3FE34CE9A0
S113015050E40E948F030E94CF02CB0168EE73E04B
S11301600E942404062F64E670E00E942404162FE3
S11301706AE070E00E942404D62FC82F85EC0E9408
S1130180410080E3800F0E945B008CE20E945B00D0
S113019080E3810F0E945B0080E38D0F0E945B006F
S11301A080E38C0F0E945B00BDCF81E00E94410080
S11301B08CE690E00E94750087B1806587B986B1AE
S11301C0876886B980B780BF86B1806486B9349B5E
S11301D0FECF86B1806186B964B175B1717080E07B
S11301E090E00E94050320E030E44CE151E40E94D9
S11301F08F036B017C0120E030E0A9010E94CA0258
S1130200811108C082EC0E94410084E790E00E94C2
S11302107500DACFC701B6010E94CF02CB0160E1BD
S113022077E20E942404F62E68EE73E00E94240410
S1130230062F64E670E00E942404162F6AE070E042
S11302400E942404D62FC82F82EC0E9441008FE71D
S113025090E00E94750080E38F0D0E945B0080E3B4
S1130260800F0E945B008CE20E945B0080E3810FA0
S11302700E945B0080E38D0F0E945B0080E38C0F83
S11302800E945B00A1CF81E00E94410083E890E0DE
S11302900E94750087B1896487B986B1876886B979
S11302A080B780BF86B1806486B9349BFECF86B1A7
S11302B0806186B964B175B1717080E090E00E948C
S11302C0050320E030E04AE75FE30E948F036B01FF
S11302D07C0120E030E0A9010E94CA02811108C01B
S11302E082EC0E94410084E790E00E947500DACF1E
S11302F0C701B6010E94CF0220E137E240E050E09E
S11303000E943804F22E28EE33E040E050E00E94D0
S11303103804022F24E630E040E050E00E94380424
S1130320122F2AE030E040E050E00E943804D22F3F
S1130330C62F82EC0E9441008FE790E00E94750076
S113034080E38F0D0E945B0080E3800F0E945B00BE
S11303508CE20E945B0080E3810F0E945B0080E3DB
S11303608D0F0E945B0080E38C0F0E945B0080E88D
S11303700E94410097CF81E00E9441008CE890E008
S11303800E94750087B18B6487B986B1866886B987
S113039086B1806486B9349BFECF86B1806186B90C
S11303A084B195B1917029E1289FE001299FD00D76
S11303B01124CD2FDD27C695BE0180E090E00E9478
S11303C0050320E030E0A9010E94CA02811108C09F
S11303D082EC0E94410084E790E00E947500D8CF2F
S11303E0CE0160E177E20E942404F62E68EE73E009
S11303F00E942404062F64E670E00E942404162F51
S11304006AE070E00E942404D62FC82F82EC0E9478
S113041041008FE790E00E94750080E38F0D0E94F9
S11304205B0080E3800F0E945B008CE20E945B0013
S113043080E3810F0E945B0080E38D0F0E945B00CC
S113044080E38C0F0E945B0080E80E944100A0CFF3
S113045081E00E94410086E990E00E9475002FEF40
S113046080E792E0215080409040E1F700C0000016
S113047081E00E94410080EA90E00E947500CF99DB
S113048009C08FE19EE40197F1F700C00000CF9B03
S11304900E94BB01CE9909C08FE19EE40197F1F758
S11304A000C00000CE9B0E944301CD99E8CF8FE1AC
S11304B09EE40197F1F700C00000CD99E0CF0E94BF
S11304C0D50087B3806E87BB8FEF81BB8AB38ABBAD
S11304D08BB3886F8BBB88E30E9441008EE00E943F
S11304E0410081E00E94410083E80E9441008CEABF
S11304F090E00E94750084EC0E94410088EB90E03B
S11305000E9475002FEF80E792E0215080409040D8
S1130510E1F700C0000081E00E94410080E80E94F1
S1130520410082EC90E00E94750080EC0E94410042
S113053083ED90E00E9475002FEF80E792E0215058
S113054080409040E1F700C0000081E00E9441003B
S113055083EE90E00E94750080EC0E9441008AEED8
S113056090E00E947500CC9909C08FE19EE4019748
S1130570F1F700C00000CC9B0E942802CB99F3CF76
S11305808FE19EE40197F1F700C00000CB99EBCF17
S11305900E948B000E94420308F481E008950E94A7
S11305A0D6026894B1110C94890308950E946E03D5
S11305B088F09F5798F0B92F9927B751B0F0E1F020
S11305C0660F771F881F991F1AF0BA95C9F714C0D0
S11305D0B13091F00E948803B1E008950C9488032F
S11305E0672F782F8827B85F39F0B93FCCF3869509
S11305F077956795B395D9F73EF490958095709566
S113060061957F4F8F4F9F4F0895E89409C097FBE2
S11306103EF490958095709561957F4F8F4F9F4FD5
S11306209923A9F0F92F96E9BB279395F695879519
S113063077956795B795F111F8CFFAF4BB0F11F4DC
S113064060FF1BC06F5F7F4F8F4F9F4F16C0882383
S113065011F096E911C0772321F09EE8872F762FB9
S113066005C0662371F096E8862F70E060E02AF0FA
S11306709A95660F771F881FDAF7880F96958795E6
S113068097F90895990F0008550FAA0BE0E8FEEFBB
S113069016161706E807F907C0F012161306E40742
S11306A0F50798F0621B730B840B950B39F40A263B
S11306B061F0232B242B252B21F408950A2609F419
S11306C0A140A6958FEF811D811D089557FD905877
S11306D0440F551F59F05F3F71F04795880F97FB02
S11306E0991F61F09F3F79F08795089512161306BC
S11306F01406551FF2CF4695F1DF08C016161706EB
S11307001806991FF1CF869571056105089408951F
S1130710E894BB2766277727CB0197F908950E94B1
S1130720A2030C9413040E94050438F00E940C04E4
S113073020F0952311F00C94FC030C940204112472
S11307400C9489030E94660370F3959FC1F3950F7F
S113075050E0551F629FF001729FBB27F00DB11D41
S1130760639FAA27F00DB11DAA1F649F6627B00DD1
S1130770A11D661F829F2227B00DA11D621F739FBA
S1130780B00DA11D621F839FA00D611D221F749FC8
S11307903327A00D611D231F849F600D211D822F0F
S11307A0762F6A2F11249F5750409AF0F1F0882336
S11307B04AF0EE0FFF1FBB1F661F771F881F915063
S11307C05040A9F79E3F510580F00C94FC030C9413
S11307D089035F3FE4F3983ED4F386957795679554
S11307E0B795F795E7959F5FC1F7FE2B880F911D8D
S11307F09695879597F9089597F99F6780E870E033
S113080060E008959FEF80EC089500240A94161682
S1130810170618060906089500240A9412161306EA
S1130820140605060895092E0394000C11F4882378
S113083052F0BB0F40F4BF2B11F460FF04C06F5F94
S11308407F4F8F4F9F4F089597FB072E16F4009408
S113085007D077FD09D00E94570407FC05D03EF469
S1130860909581959F4F0895709561957F4F089558
S1130870052E97FB1EF400940E944F0457FD07D0E9
S11308800E946B0407FC03D04EF40C944F04509563
S11308904095309521953F4F4F4F5F4F0895909568
S11308A08095709561957F4F8F4F9F4F0895AA1B38
S11308B0BB1B51E107C0AA1FBB1FA617B70710F047
S11308C0A61BB70B881F991F5A95A9F78095909579
S11308D0BC01CD010895A1E21A2EAA1BBB1BFD0188
S11308E00DC0AA1FBB1FEE1FFF1FA217B307E4070B
S11308F0F50720F0A21BB30BE40BF50B661F771F63
S1130900881F991F1A9469F7609570958095909542
S11109109B01AC01BD01CF010895F894FFCF07
S113091E53696E676C65206D6F6465004469666625
S113092E20783100204F70706F7369746520005603
S113093E693D004469666620783130004469666614
S113094E20783230300044696666206D6F6465002D
S113095E73656C656374204761696E00455344206A
S113096E50726F6A65637400566F6C746D6574654E
S113097E7200436C69636B207468652062757474CD
S113098E6F6E00746F2073656C656374206D6F6495
S113099E65210053696E676C65004469666665720D
S10B09AE656E7469616C0000C0
S9030000FC
