S0120000566F6C746D65747465722E73726563DC
S11300000C942A000C943F000C943F000C943F0085
S11300100C943F000C943F000C943F000C943F0060
S11300200C943F000C943F000C943F000C943F0050
S11300300C943F000C943F000C943F000C943F0040
S11300400C943F000C943F000C943F000C943F0030
S11300500C943F0011241FBECFE5D4E0DEBFCDBF1A
S113006010E0A0E6B0E0E8EFF8E002C005900D92E1
S1130070A63FB107D9F70E944E020C947A040C945F
S1130080000098B39F7B98BB98B39F7D98BB82BBBD
S113009088B3806888BB8FEC97E00197F1F700C0C4
S11300A0000088B38F7788BB8FE097E20197F1F760
S11300B000C00000089598B39F7B98BB98B39062EA
S11300C098BB82BB88B3806888BB8FEC97E00197AC
S11300D0F1F700C0000088B38F7788BB8FE097E208
S11300E00197F1F700C0000008950F931F93CF9379
S11300F0DF938C01C0E0D0E003C00E945B00219636
S1130100F801EC0FFD1F80818111F7CFDF91CF91B2
S11301101F910F91089581E00E94410080E690E0D4
S11301200E94750087B1806487B986B1876E86B9ED
S113013080B780BF349BFECF86B1806186B964B13D
S113014075B180E090E00E94F20226EE3FE34CE9B4
S113015050E40E947C030E94BC02CB0168EE73E071
S11301600E941104062F64E670E00E941104162F09
S11301706AE070E00E941104D62FC82F85EC0E941B
S1130180410080E3800F0E945B008CE20E945B00D0
S113019080E3810F0E945B0080E38D0F0E945B006F
S11301A080E38C0F0E945B00BDCF81E00E94410080
S11301B08CE690E00E94750087B1806587B986B1AE
S11301C0876886B980B780BF86B1806486B9349B5E
S11301D0FECF86B1806186B964B175B180E090E0EC
S11301E00E94F20226EE3FE34CE950E40E947C03B5
S11301F06B017C0120E030E0A9010E94B70281116B
S113020008C080EC0E94410084E790E00E947500E1
S1130210DBCFC701B6010E94BC02CB0160E177E2EB
S11302200E941104F62E68EE73E00E941104062F5A
S113023064E670E00E941104162F6AE070E00E94E8
S11302401104D62FC82F85EC0E94410080E38F0D46
S11302500E945B0080E3800F0E945B008CE20E949E
S11302605B0080E3810F0E945B0080E38D0F0E949E
S11302705B0080E38C0F0E945B00A6CF81E00E94AC
S1130280410082E890E00E94750087B1806587B9DB
S113029086B1876886B980B780BF86B1806486B925
S11302A0349BFECF86B1806186B964B175B180E0BC
S11302B090E00E94F2022FED3FE443E452E40E94F6
S11302C07C036B017C0120E030E0A9010E94B702AD
S11302D0811108C080EC0E94410084E790E00E94F4
S11302E07500DBCFC701B6010E94BC0220E137E2F2
S11302F040E050E00E942504F22E28EE33E040E076
S113030050E00E942504022F24E630E040E050E053
S11303100E942504122F2AE030E040E050E00E94C1
S11303202504D22FC62F85EC0E94410080E38F0D57
S11303300E945B0080E3800F0E945B008CE20E94BD
S11303405B0080E3810F0E945B0080E38D0F0E94BD
S11303505B0080E38C0F0E945B009FCF81E00E94D2
S113036041008BE890E00E94750087B1806587B9F1
S113037086B1866886B986B1806486B9349BFECF1F
S113038086B1806186B964B175B180E090E00E9465
S1130390F20221E73DE34CE151E40E947C036B014E
S11303A07C0120E030E0A9010E94B702811108C05D
S11303B080EC0E94410084E790E00E947500DBCF4E
S11303C0C701B6010E94BC02CB0160E177E20E9442
S11303D01104F62E68EE73E00E941104062F64E601
S11303E070E00E941104162F6AE070E00E9411046C
S11303F0D62FC82F85EC0E94410080E38F0D0E9408
S11304005B0080E3800F0E945B0080E3810F0E9409
S11304105B0080E38D0F0E945B008CE20E945B0016
S113042080E38C0F0E945B00A6CF81E00E94410014
S113043085E990E00E9475002FEF80E792E021505B
S113044080409040E1F700C0000081E00E9441003C
S11304508FE990E00E947500B49909C08FE19EE491
S11304600197F1F700C00000B49B0E94AE01B3995C
S113047009C08FE19EE40197F1F700C00000B39B2F
S11304800E943E01B299E8CF8FE19EE40197F1F713
S113049000C00000B299E0CF0E94D50087B3806EFF
S11304A087BB88B38F6188BB8FEF81BB88E30E94D1
S11304B041008EE00E94410081E00E94410083E8F7
S11304C00E9441008BEA90E00E94750084EC0E9437
S11304D0410087EB90E00E9475002FEF80E792E0E7
S11304E0215080409040E1F700C0000088EF88BBB5
S11304F081E00E94410080E80E94410081EC90E08C
S11305000E94750080EC0E94410082ED90E00E9400
S113051075002FEF80E792E0215080409040E1F792
S113052000C0000081E00E94410082EE90E00E9441
S1130530750080EC0E94410089EE90E00E947500F5
S1130540B19909C08FE19EE40197F1F700C0000062
S1130550B19B0E941502B099F3CF8FE19EE40197FD
S1130560F1F700C00000B099EBCF0E948B000E940D
S11305702F0308F481E008950E94C3026894B11126
S11305800C94760308950E945B0388F09F5798F0BB
S1130590B92F9927B751B0F0E1F0660F771F881F84
S11305A0991F1AF0BA95C9F714C0B13091F00E949E
S11305B07503B1E008950C947503672F782F88278D
S11305C0B85F39F0B93FCCF3869577956795B395C5
S11305D0D9F73EF490958095709561957F4F8F4F34
S11305E09F4F0895E89409C097FB3EF49095809539
S11305F0709561957F4F8F4F9F4F9923A9F0F92FE5
S113060096E9BB279395F695879577956795B79562
S1130610F111F8CFFAF4BB0F11F460FF1BC06F5F48
S11306207F4F8F4F9F4F16C0882311F096E911C05A
S1130630772321F09EE8872F762F05C0662371F07B
S113064096E8862F70E060E02AF09A95660F771F8F
S1130650881FDAF7880F9695879597F90895990F6B
S11306600008550FAA0BE0E8FEEF16161706E80778
S1130670F907C0F012161306E407F50798F0621B99
S1130680730B840B950B39F40A2661F0232B242B6E
S1130690252B21F408950A2609F4A140A6958FEF8D
S11306A0811D811D089557FD9058440F551F59F021
S11306B05F3F71F04795880F97FB991F61F09F3F4B
S11306C079F087950895121613061406551FF2CF74
S11306D04695F1DF08C0161617061806991FF1CFC4
S11306E086957105610508940895E894BB276627EB
S11306F07727CB0197F908950E948F030C94000487
S11307000E94F20338F00E94F90320F0952311F0BF
S11307100C94E9030C94EF0311240C9476030E94C7
S1130720530370F3959FC1F3950F50E0551F629FDB
S1130730F001729FBB27F00DB11D639FAA27F00D36
S1130740B11DAA1F649F6627B00DA11D661F829F5D
S11307502227B00DA11D621F739FB00DA11D621F42
S1130760839FA00D611D221F749F3327A00D611D5F
S1130770231F849F600D211D822F762F6A2F112441
S11307809F5750409AF0F1F088234AF0EE0FFF1F74
S1130790BB1F661F771F881F91505040A9F79E3FCB
S11307A0510580F00C94E9030C9476035F3FE4F365
S11307B0983ED4F3869577956795B795F795E79521
S11307C09F5FC1F7FE2B880F911D9695879597F92A
S11307D0089597F99F6780E870E060E008959FEFBF
S11307E080EC089500240A941616170618060906C4
S11307F0089500240A941216130614060506089593
S1130800092E0394000C11F4882352F0BB0F40F41A
S1130810BF2B11F460FF04C06F5F7F4F8F4F9F4F5A
S1130820089597FB072E16F4009407D077FD09D09E
S11308300E94440407FC05D03EF4909581959F4F97
S11308400895709561957F4F0895052E97FB1EF4CA
S113085000940E943C0457FD07D00E94580407FCF2
S113086003D04EF40C943C0450954095309521955A
S11308703F4F4F4F5F4F08959095809570956195C8
S11308807F4F8F4F9F4F0895AA1BBB1B51E107C099
S1130890AA1FBB1FA617B70710F0A61BB70B881F0C
S11308A0991F5A95A9F780959095BC01CD0108959B
S11308B0A1E21A2EAA1BBB1BFD010DC0AA1FBB1F60
S11308C0EE1FFF1FA217B307E407F50720F0A21BD2
S11308D0B30BE40BF50B661F771F881F991F1A943F
S11308E069F760957095809590959B01AC01BD0169
S10B08F0CF010895F894FFCF35
S11308F853696E676C65206D6F646500446966664C
S1130908207831006E67756F6320636869657520A8
S1130918560044696666207831300044696666206A
S1130928783230300044696666206D6F6465007300
S1130938656C656374204761696E004553442050B3
S1130948726F6A65637400566F6C746D6574657252
S113095800436C69636B2074686520627574746FF6
S11309686E00746F2073656C656374206D6F6465C5
S1130978210053696E676C65004469666665726533
S10909886E7469616C004D
S9030000FC
